:1000000012C0C9C12BC0AAC029C028C027C026C0A1
:1000100025C024C023C022C021C020C01FC01EC0D4
:100020001DC01CC01BC011241FBECFE5D4E0DEBF25
:10003000CDBF10E0A0E6B0E0E8E5F7E002C0059033
:100040000D92A838B107D9F721E0A8E8B0E001C0C7
:100050001D92A03AB207E1F72CD37CC3D1CF90ED2B
:10006000960F9A3008F090E02FE9260F263010F412
:100070006755960F20ED280F2A3020F4282F22955F
:10008000207F920F2FE9280F263020F48295807F61
:100090008057980F892F0895EF92FF920F931F9327
:1000A000CF93DF93182FEA01C09A222309F449C0A5
:1000B000E22EF12CA7016FE670E0CE013DD3892B33
:1000C00091F407E023E730E044E663E0812F5DD15F
:1000D000C29A2FEF81EE94E0215080409040E1F7EA
:1000E00000C00000C298A7016AE770E0CE0124D3E7
:1000F000892B91F408E02FE730E044E663E0812F9C
:1001000044D1C19A2FEF81EE94E02150804090407D
:10011000E1F700C00000C1988881833691F489819D
:100120008736B1F0823741F0823659F46B818A818B
:1001300096DF8093880005C06B818A8190DF809371
:100140008A00DF91CF911F910F91FF90EF9008955A
:100150006B818A8184DF80938900F3CF1F920F9295
:100160000FB60F9211242F933F934F935F936F938A
:100170007F938F939F93EF93FF9380919B0180FDDB
:100180002DC010926000811112C089B78F7789BF8E
:10019000FF91EF919F918F917F916F915F914F911F
:1001A0003F912F910F900FBE0F901F90189591E0E7
:1001B00090939B01809199018150809395001092BA
:1001C000940084E0809393009093920010929601A3
:1001D0001092910084B5815F83BDDACF81B3582F2F
:1001E000547082FF3AC08A9880919300811103C0B5
:1001F00010929B01CACF81E08093960140919500B7
:100200002091930030919200909194006091980118
:1002100080919100742F7223552391F1772391F1EE
:100220004093950020939300309392009093940014
:100230008093910093B5809192008295807F890F81
:1002400083BD90919200552309F441C081E095301F
:1002500009F080E0809392009BCF809196018823E3
:1002600021F082E080939B0190CF8A9A8091930045
:100270008111C4CF81E08093970183B5805FACCFBB
:10028000772371F23F5F2695A9F49617B8F4E92F0A
:10029000F0E0EA5EFE4F2081822748E07CE8869508
:1002A00008F487274A95D9F7782F822F9F5F482F28
:1002B000872F20E8353008F4ADCFB2CF691729F089
:1002C0004093950010929300AFCF782FEFCF90938B
:1002D0009701BCCF80919B01811180919901089574
:1002E00082E080939B01829B03C089B7806889BFAD
:1002F0000895F89489B78F7789BF80919B0180FF1B
:1003000005C0829B03C084B5815983BD10929B01B7
:1003100078948A980895EF92FF920F931F93CF934A
:10032000DF93182FC62FD42F790180919B01811163
:10033000E0DFC930D0F4C11101C0C1E0C093990120
:1003400083E68093160110931701D0931801009350
:10035000190101110CC00C5F00939801DF91CF913E
:100360001F910F91FF90EF90BBCFC8E0E7CFE11452
:10037000F10489F39E2DAAE1B1E0F70181918D93FB
:100380008E2F891B8017D0F3E6CF0F930C3708F41C
:10039000C2DF0F9108951F920F920FB60F92112492
:1003A000EF92FF920F931F932F933F934F935F937F
:1003B0006F937F938F939F93AF93BF93CF93DF936D
:1003C000EF93FF9394B580B382FB882780F98195E2
:1003D0002091600030919B0120FD02C030FFA2C03F
:1003E00040919000C92FC41BC850C03508F09AC076
:1003F000C295CF70CF5F882331F02C2F2295207FBC
:10040000240F2093900030FF9CC0882309F48CC0F7
:10041000209197012C1708F491C01092960188231F
:1004200009F49CC0C11103C092E0909360009091C8
:10043000600090FFA9C090918B004FEF50E0092E13
:1004400002C0559547950A94E2F720918D008823C4
:1004500009F4B1C0242B20938D0020918C00921BB5
:100460009C0F90938B0093FFCDC020919A019091A7
:100470008D00222309F4A2C0E0918E0021E02E0F0E
:1004800020938E00F0E0EA56FF4F908320918F007A
:10049000292798E03CE8269508F423279A95D9F770
:1004A00020938F0090918E00943008F4BAC0F090A1
:1004B0009900492F50E02F2D30E02C5F3F4F24173B
:1004C00035070CF0AEC082E08093600080918F0011
:1004D000811198C0D0919600E090970010919800FB
:1004E000E0919C01F0919D01309739F00F2D2AE9A0
:1004F00030E0412F6E2D8D2F0995D33609F482C03F
:1005000083E6E81619F08FEFE8127CC0133009F08B
:1005100059C098E088E10FB6F894A89581BD0FBE48
:1005200091BDFFCFC0E06FCF8A9977CF23B530E080
:10053000291B3109283031050CF46FCF22E02093BC
:100540009B01882341F0915993BD90E898BF99B7DA
:10055000906899BF67CF29B72F7729BF90939000F4
:100560009091600091115ECF10928F0010928E00DA
:1005700010929A0110928D0081E080938C008093FC
:10058000600085E080938B00FF91EF91DF91CF9128
:10059000BF91AF919F918F917F916F915F914F919B
:1005A0003F912F911F910F91FF90EF900F900FBEF1
:1005B0000F901F901895409524234DCF9F5F9093E7
:1005C0009A0170CF80919B01882321F0809199013D
:1005D000843020F4112379F01E3FD9F0E0919E0180
:1005E000F0919F01309771F02F2D4AE950E0612F73
:1005F0008D2F099507C00DE021E630E041E063E072
:100600008D2F89DE81E0C53009F080E080938C0079
:10061000BBCF0F2D2AE930E04FEF64E08D2FB5DE20
:10062000F1CF97FD08C090918B00977090938B004D
:1006300080938D00E7CF82E080936000E3CF0F933B
:1006400084B78093980114BE0FB6F894A89581B52D
:10065000886181BD11BC0FBE84E085BD8A989298E7
:1006600085B7816085BF85B78D7F85BF80E48ABFF0
:100670008BB780648BBF829B08C084B5815983BDD2
:1006800080E888BF89B7806889BF789401E028E94D
:1006900031E044E063E08FEF3EDE0F9108959093E8
:1006A0009F0180939E01089590939D0180939C01EA
:1006B000089587E087BB98B318BA84BB15BABFDF2B
:1006C0008CE490E0ECDF789440E050E020E030E013
:1006D00080E061E081110CC090918A009111A89A8C
:1006E000909189009111A99A909188009111AA9AEC
:1006F00090918A00891301C0A8989091890089136C
:1007000001C0A99890918800891301C0AA984F5FF1
:100710005F4F493E93E0590720F02F5F3F4F40E085
:1007200050E0293E93E0390728F098B3962798BB0C
:1007300020E030E08F5FCECFFB01DC014150504024
:1007400030F08D910190801919F40020B9F7881BC1
:08075000990B0895F894FFCF06
:1007580002434C554E4554206465766963650067CD
:100768006F6E00676F6E206F6B00676F666600675D
:080778006F6666206F6B000044
:00000001FF
